:1000000003308A00E02B0000A02272396F392110E2
:1000100000000330AE02031C17282E308400831327
:1000200000080319172815281528800B1428080024
:100030002C1083168610831286100230AD00F93022
:10004000AE000920AD0B1F28831686147430F7000C
:10005000F70B2828000086148312861837282C14E2
:100060000230AD00D630AE000920AD0B3228003092
:100070002C180130F80008000130AD002D08083CB4
:10008000031C6B280310AC0C003003180130AE00C9
:100090002E08AF0083168610831286100230F700F8
:1000A000F70B502853280000AF08031D592886106D
:1000B0005A288614831686106330F700F70B5E28E3
:1000C000612886140230F700F70B642867280000C7
:1000D0008312AD0A3E28080083168610831286100C
:1000E0000230F700F70B722875280000831686147B
:1000F0000C30F700F70B7A287D2800008614831255
:100100002E1086182E14C730F700F70B8528882884
:1001100000302E180130F8000800AC012C08073C14
:10012000031C9C286C20F808031D982803109928AC
:100130000314AD0CAC0A8E282D08F8000800182016
:10014000F808031DA6280030F800AE28CC30AC001B
:100150003C204430AC003C200130F800F808031D7E
:10016000B4280030F800DD286C20F8080319B42802
:100170002708A9002608A8001820F808031DC3288E
:100180000030F800DC28CC30AC003C20BE30AC00A5
:100190003C208D207808AA008D207808AB00280824
:1001A0008400831329188317840A2B088000840392
:1001B0002A0880000130F80078088A110A12F82B0A
:1001C0008E30F7002708F8002608F900FA01A71F6B
:1001D000EE28F809F909F90A0319F80AF808031DC5
:1001E000FB287908F800F9010830F702F808031D28
:1001F000FB28F70104290310F81B0229F90DF80D5B
:10020000F703FB28A71FF8138A110A12002C2A08EB
:100210000319CC29B6002E080319CC29B602031CF9
:1002200016297F30B6070318CC291C298130B60265
:10023000031CCC290319CC293608F700F801F90171
:10024000FA01B5012B08B400B4172C08B3002D082F
:10025000B2001930B6003108B20203183F2901304C
:10026000B30203183F29B40203183F29B50203184B
:100270003F29B50AB40AB30A3108B2077129300818
:10028000B30203185A290130B40203185A29B502DF
:1002900003185A29B50AB40A3008B3073108B2075F
:1002A000031C7129B30A031D7129B40A031D7129A6
:1002B000B50A71292F088038B4020318702901305B
:1002C000B50203187029B50A2F088038B407300822
:1002D000B307031C4E29B40A031D4E29B50A4E2943
:1002E0007A14B60B74297F290310B20DB30DB40D27
:1002F000B50D0310FA0DF90DF80DB70D2B29371CAC
:1003000087290310F80CF90CFA0CB70C8A29F703AB
:100310000319CC29B71BB3290310B20DB30DB40DCB
:10032000B50D3108B20203189F290130B30203183A
:100330009F29B40203189F29B502031CC229300863
:10034000B3020318AA290130B4020318AA29B5027E
:10035000031CC2292F088038B4020318B3290130C6
:10036000B502031CC229FA0A031DC229F90A031D9A
:10037000C229F80A031DC229F70A0319CC29F80C6F
:10038000F90CFA0C2B08B6002F08B606B61FCA29BE
:10039000F817D029F813D029F701F801F901FA016B
:1003A0008A110A12162C8318D8293B308400831333
:1003B000F701F801F901FA01BB01BC01BD01BE0161
:1003C0003A083904380437040319162A2030BF00CC
:1003D0000310B30DB40DB50DB60DBB0DBC0DBD0DA9
:1003E000BE0D3A083E02031DFF2939083D02031DD8
:1003F000FF2938083C02031DFF2937083B02031C74
:10040000102A3708BB023808031C380FBC02390811
:10041000031C390FBD023A08031C3A0FBE02031435
:10042000F70DF80DF90DFA0DBF0BE8293B08800018
:10043000840A3C088000840A3D088000840A3E0843
:10044000800008000408AB002A08AD000319B42A94
:100450002908B6002808B5002708B4002608B3000C
:10046000BA01B9012030B8008230B700330803194F
:10047000A62ABB0037080319A62ABB070318472A78
:100480007F30BB02031CA62A0319A62A4B2A8130FF
:10049000BB070318A62A3B08F700F801F901FA0187
:1004A0003408BF00BF173508BE003608BD0018303D
:1004B000BB00BC013D1C742A3A08FA07031C662ADB
:1004C000F90A031D662AF80A0319BC173908F90747
:1004D000031C6D2AF80A0319BC173808B500B517B4
:1004E0003508F8070318BC17BC0DF80CF90CFA0C0A
:1004F000BF0CBE0CBD0C0310BB0B592A0130F70713
:100500000318A62AF81B8B2ABF0DFA0DF90DF80D5A
:10051000F7030319A62ABF1F9C2AFA0A031D9C2A67
:10052000F90A031D9C2AF80A031D9C2AF80CF90CF1
:10053000FA0CF70A0319A62A3408BC003808BC06CE
:10054000BC1FA42AF817AA2AF813AA2AF701F8014F
:10055000F901FA017A08A9007908A8007808A7002B
:100560007708A600AD0B282A2908B6002808B50090
:100570002708B4002608B3003308B63CB300FA01DC
:100580003408B700B4170310B40CB50CB60CFA0C51
:10059000F90CF80CF70CB30BC32AB71FDA2AF709CA
:1005A000F809F909FA09F70A0319F80A0319F90A07
:1005B0000319FA0A7A08A9007908A8007808A700A0
:1005C0007708A600A91FF12AAB03AB16A609A70955
:1005D000A809A909A60A0319A70A0319A80A031951
:1005E000A90A3B30B2009A30B100CA30B000AF0166
:1005F0000A30AD002A080319AB0A831426308400A0
:1006000083132908B6002808B5002708B400260877
:10061000B3003208BA003108B9003008B8002F081A
:10062000B700D3217808F708031D292B2A0A2D02C9
:100630000319292B2B0803192B2B0F392D02031912
:10064000232B03185F2BAB1B5F2B2B1B2B2B20307B
:100650005A2B2030AB05AB1E3A2BAB122A08031DD8
:10066000AB037708AB002D300C1E342B99002B0800
:10067000F700AB012A082D02031D492B7708AB00B8
:100680002E300C1E412B99002B08F7002030AB05B3
:1006900000303030AB1E5A2BAB122A08031DAB03BF
:1006A0007708AB002D300C1E532B99002B08F70058
:1006B000AB013030F70777080C1E5C2B99008310D4
:1006C0003208B6003108B5003008B4002F08B30076
:1006D000BA01B901B8010A30B700D3217A08B200D3
:1006E0007908B1007808B0007708AF00AD0BFD2A9B
:1006F0008A110A122B2C0B08A6008B1383160317E2
:100700008C170C140000000083120C087F390319A9
:10071000C42B0313A70003170D080313A800031726
:100720000F080313A90027080C1E942B9900280812
:1007300003178D000313290803178F0083168C17E6
:100740000C140000000083120C0D0E0D7F390319EC
:10075000C42B0313A70003170D080313A8000317E6
:100760000F080313A90027080C1EB42B99002808B2
:1007700003178D000313290803178F008D0A03192F
:100780008F0A03137E2B03170313A61B8B178A11E3
:100790000A12372C26308400831300080319DD2B3E
:1007A0000630F800F701F70BD32BF80BD22B7B3078
:1007B000F700F70BD92B800BD02B8A110A123A2C99
:1007C00003081F398300813083169900A6309800F2
:1007D00090308312980083161F149F141F159F11C9
:1007E00007309C0083138312A7012030A6009F28A6
:1007F000F8080319302C2108A7002008A600E028DB
:100800007A08A9007908A8007808A7007708A60048
:100810007A08AD007908AC007808AB007708AA0028
:10082000B101B001AF018330AE0007297A08A500FD
:100830007908A4007808A3007708A2008930840012
:100840002508A9002408A8002308A7002208A6005C
:100850000230AA00222A0A300C1E2C2C9900372CB8
:10086000043003178D0000308F0003137B2B0530FD
:08087000A600CA2BF42B630063
:02400E00323F3F
:00000001FF
;PIC16F877A
;CRC=3041  CREATED="07-jun-19 11:33"
