:1000000000308A001A280000223084008313000880
:10001000031917280630F800F701F70B0D28F80B25
:100020000C287B30F700F70B1328800B0A288A1165
:100030000A12392803081F398300FF30A0008316F5
:100040001F149F141F159F1107309C0083138312E8
:10005000201220088316870083120712A01220089E
:1000600083168700831287160830A100FA30A20099
:100070000428A10B36282012200883168700103090
:1000800083128706A012200883168700203083126F
:060090008706342863001E
:02400E00323F3F
:00000001FF
;PIC16F877A
;CRC=98B2  CREATED="14-mai-19 16:52"
