:1000000000308A00242800002D080739F7002D0C45
:10001000F800F80CF80C1F30F80578082F0784005A
:10002000831330188317F801F80AF70A1828F80D17
:10003000F70B1728AE080319202878088004232816
:10004000F80978088005080003081F398300831623
:100050001F149F141F159F1107309C008313373006
:100060008312A1003630A2003530A3003430A40042
:100070003330A5003230A6003130A7003030A80060
:100080004730A9004630AA0083161F109F141F1581
:100090009F158312AB012B08093C031C64282130F7
:1000A0002B07840083130008AC00AD000130AE00C4
:1000B000B001AF0104202C08AD00AE01B0018030CA
:1000C000AF000420AB0A4B28AB012B08093C031CF2
:1000D0007D2821302B07840083130008AC00AD007D
:1000E000AE01B001AF0104202C08AD00AE01B0019B
:0E00F0008030AF000420AB0A65284A28630068
:02400E00323F3F
:00000001FF
;PIC16F877A
;CRC=45C1  CREATED="10-mar-19 11:04"
