:1000000000308A001A28000023308400831300087F
:10001000031917280630F800F701F70B0D28F80B25
:100020000C287B30F700F70B1328800B0A288A1165
:100030000A126D2803081F398300FF30A0008316C1
:100040001F149F141F159F1107309C0083131F104E
:100050009F141F159F151F1383121F179F178316B9
:100060009F1783121F140030F80006389200FF30EB
:1000700083169200831220112008831687008312B2
:1000800007110C309700803095001708CF39970082
:100090001F151F19492883161E088312A1001E0868
:1000A000A2005230F700F70B532856280000220810
:1000B000F9002108F800F90CF80CF90CF80CF90C0F
:1000C00078089500F90C790C3039F7001708CF390A
:0E00D000770497003230A3000428482863000C
:02400E00323F3F
:00000001FF
;PIC16F877A
;CRC=CFC5  CREATED="21-mar-19 14:01"
