:1000000000308A0004280000FF238316900000308F
:100010008A00842883168510831285100830A10079
:1000200011280000A1172228A113AE0C0318851473
:10003000031C8510211722282113A10B1528202825
:10004000000085141C308400840B24282728A11B61
:100050001428211B1C2808000408AD00270EF038C6
:10006000A900A907E23EAA00323EAC0027080F39DA
:10007000AA07AA07AC07E93EAB00AB07AB07260E01
:100080000F39AB07AC07AB0DAC0DAC09AC0D2608B6
:100090000F39AC07A90D0730A8000A30AC07AB0335
:1000A000031C4E28AB07AA03031C5228AA07A90366
:1000B000031C5628A907A803031C5A2828308400CB
:1000C00007302D052D1384072C30040203192D173A
:1000D0000008A000031D74282D1B74282D1A8028E9
:1000E000AD19742820307728AD152D123030A007B7
:1000F000A7010408A6002008AE000A2026088400F4
:10010000840A2D1F6428B72803081F39830083162B
:100110008510831285141F1383161F109F101F1143
:100120009F110730831299001F1383161F149F100D
:100130001F119F111F129F121F1383129F131F1451
:1001400083161F169F161F1383129F131F149F14CD
:100150009F18A82883161E088312A4001E08A50055
:10016000103084002508A7002408A6002C280A3097
:0E017000AE000A200D30AE000A20A728630062
:02400E00A43FCD
:00000001FF
;PIC12F675
;CRC=B0D0  CREATED="24-abr-19 01:23"
