:1000000000308A001A28000023308400831300087F
:10001000031917280630F800F701F70B0D28F80B25
:100020000C287B30F700F70B1328800B0A288A1165
:100030000A12A92803081F398300A101A001FF307B
:10004000A20083161F149F141F159F1107309C00D8
:1000500083131F109F141F159F151F1783121F173F
:100060009F1383169F1783121F148316091283127E
:100070009412A212220883168700831222162208E5
:10008000831687008312A21122088316870001308D
:10009000831294000030831694000108C739083891
:1000A0008100831290010030F80006389200FF3082
:1000B000831692008312221122088316870083126E
:1000C00007110C309700803095001708CF39970042
:1000D000073083169C00050885001030F700F70BE9
:1000E0006F2800001C0883120D1383169D01003039
:1000F000F80083121F08C73978049F005230F700B8
:10010000F70B8028832800001F151F1985288316E8
:100110001E088312A0001E08A1005230F700F70B42
:100120008F28922800002108F9002008F800F90C17
:10013000F80CF90CF80CF90C78089500F90C790C0E
:100140003039F7001708CF39770497006430A300DF
:060150000428842863006E
:02400E007A3FF7
:00000001FF
;PIC16F877A
;CRC=90AB  CREATED="21-mar-19 13:04"
