:1000000000308A0018280000223084008313000882
:10001000031917280630F800F701F70B0D28F80B25
:100020000C287B30F700F70B1328800B0A280800F8
:1000300003081F398300813083169900A630980089
:1000400090308312980083161F149F141F159F1160
:1000500007309C00831306148312061C3628613077
:100060000C1E302899000530A20004208C1E482860
:100070008C1E38281A08A1002108613C031D48285D
:10008000831686100230831286060530A2000420F3
:0600900083162B2863001B
:02400E00323F3F
:00000001FF
;PIC16F877A
;CRC=BF00  CREATED="21-mar-19 17:36"
