:1000000003308A00532B0000FF00030E8301A10080
:100010000A08A0008A010408A2007708A300780853
:10002000A4007908A5007A08A600831383128B1E0A
:100030001B280B192C28220884002308F700240809
:10004000F8002508F9002608FA0020088A00210E89
:100050008300FF0E7F0E09008A110A123F280A1042
:100060008A100A118207313432343334343435344F
:1000700036343734383439342A3430342334AD0A02
:100080000319AE0A2C082E02031C5F28031D4C28FE
:100090002B082D02031C5F2830302F0784008313A8
:1000A0000008CC008316850183124C088500AF0A36
:1000B0002F08033C03185D28AF01AE01AD010B1101
:1000C0008A110A121B288C266F3A6F39A0183A1031
:1000D0002536751020050000423084008313000887
:1000E00003197F280630F800F701F70B7528F80B85
:1000F00074287B30F700F70B7B28800B72280800F0
:100100008316811383128A110A12B72B49188A2881
:1001100085108B288514831685108312C9189228A0
:1001200005119328051583160511831249199A287C
:1001300085119B288515831685118312C919A2285C
:100140000512A32805168316051200008312091450
:10015000831609100330F700F70BAC28831209103F
:100160008316091083120800CA0183168514003013
:10017000831285180130CA048316051500308312D6
:1001800005190130F7000310F70D7708CA0483162C
:1001900085150030831285190130F700F70DF70D32
:1001A000FC30F7057708CA04831605160030831261
:1001B000051A0130F700F70DF70DF70DF830F705C8
:1001C0007708CA044A08F800080083160910891045
:1001D0000911831289108316891085140515851558
:1001E00005168312091583160911000083120914DC
:1001F0008316091000008312B4207808C900091082
:1002000083160910000083120914831609100829A7
:10021000092900008312B4207808C8000910831649
:10022000091085100511851105128312490EF7007A
:10023000F030F70577084804F8007808C800C81FB0
:1002400023298316ED28C608031D2829891029298A
:10025000891483168910000083120911831609116D
:10026000000083120910831609108312470EC8007C
:100270000F30C8054808C900862047080F39C80054
:10028000C900862008002830B9000C30BA000130BF
:10029000BB000630BC0009108316091083128910B8
:1002A000831689108312091183160911851005110F
:1002B000851105120910891009110F308312C2002F
:1002C0006C200130B8003808033C031C6F29033050
:1002D000C90086200530C2006C20B80A63290230AC
:1002E000C90086200530C2006C20B8013808033CE4
:1002F000031C862939303807840083130008BD00A9
:10030000C6013D08C700E520B80A76298A110A12FD
:10031000B82B831606140030831206180130BA0079
:10032000831686140030831286180130BA058316AE
:1003300006150030831206190130BA05831686159A
:1003400000308312861901303A050319AB290030B9
:10035000F800AE29AE290130F800AE290800B80136
:10036000A70A2708213C0318512A2A08FC3E031833
:10037000EF29043E562A83160612831206128316AC
:100380008612831286168316061383120617EF2928
:10039000831606128312061683168612831286129D
:1003A0008316061383120617EF298316061283128B
:1003B0000616831686128312861683160613831278
:1003C0000613EF2983160612831206168316861269
:1003D000831286168316061383120617EF29281C2C
:1003E000FA298921F808031DF92928102908B800DD
:1003F000A901502A8921F80803194B2A83160614EB
:1004000083120618052AB9011C2A83168614831242
:1004100086180D2A0130B9001C2A8316061583128E
:100420000619152A0230B9001C2A83168615831274
:1004300086191C2A0330B9003908BA000330BB0002
:10044000F701F8013A0803103B18F707F70CF80C0E
:10045000BB18F707F70CF80C3B19F707F70CF80C6B
:10046000BB19F707F70CF80C3B1AF707F70CF80C59
:10047000BB1AF707F70CF80C3B1BF707F70CF80C47
:10048000BB1BF707F70CF80C2A0878072F20F80099
:10049000A9002814502AAA0A2A08043C0319AA0110
:1004A000A7013808F8008A110A12B92B0A108A1419
:1004B0000A118207BB29C829D529E229430B612AE1
:1004C000642A4030C400652AC40101304202C407D6
:1004D00044088038C500C6014508C700E52008006B
:1004E0004108073A03197E2A0B3A0319832A063A70
:1004F00003198B2A023A0319912A962A0130C20065
:10050000C3005E229C2AC6010130C700E5200230EC
:10051000C2006C209C2A0130C2000230C3005E225F
:100520009C2AC6011030C700E5209C2A0130C60075
:100530004108C700E5209C2A0800831603178C1782
:100540000C14000000000318CC2A83120C087F3919
:100550000313B90003170D080313BA0003170F089C
:100560000313BB003908C10070223A0803178D003D
:1005700003133B0803178F0083168C170C1400001D
:10058000000083120313B80BC62AC92A8316031767
:10059000CC2AEB2A8316031783120C0D0E0D7F391C
:1005A0000313B90003170D080313BA0003170F084C
:1005B0000313BB003908C10070223A0803178D00ED
:1005C00003133B0803178F008D0A03198F0A0310CA
:1005D0000313B80B9D2A8A110A12E12BC0010408EB
:1005E000BF004010831B4014390EF038BB00BB071E
:1005F000E23EBC00323EBE0039080F39BC07BC07E2
:10060000BE07E93EBD00BD07BD07380E0F39BD0767
:10061000BE07BD0DBE0DBE09BE0D38080F39BE07A1
:10062000BB0D0730BA000A30BE07BD03031C142BF4
:10063000BD07BC03031C182BBC07BB03031C1C2BEE
:10064000BB07BA03031C202B3A3084008313073006
:100650003F053F1384073E30040203193F1700088B
:10066000F700031D3B2B3F1B3B2B3F1A4D2BBF19A4
:100670003B2B20303E2BBF153F123030F707B9011E
:100680000408B8003910831B39147708C1007022A0
:1006900038088400831339188317840A3F1F2B2BD3
:1006A0008A110A12E82B840183131F3083058130DD
:1006B00083169900A6309800903083129800AC0100
:1006C0006430AB00AE01AD01AF01FF30B600831660
:1006D0001F149F141F159F1107309C008312A70140
:1006E0002810A901AA010130B0000430B100023085
:1006F000B2000830B30083161F1383121F139F1715
:1007000083169F1783121F1483161F109F141F1523
:100710009F150030F80083121F08C73978049F0026
:100720000030F80006389200FA30831692008312E7
:100730003611360883168700831207110C30970094
:10074000073083169C00050885001030F700F70B72
:10075000A72B00001C0883120D1383160108C03953
:100760000338810064308312C2006C208028432942
:10077000AF297808B7001F151F19BC2B83161E0858
:100780008312B4001E08B5003508F9003408F800DB
:10079000F90CF80CF90CF80CF90C78089500F90C28
:1007A000790C3039F7001708CF3977049700633098
:1007B00003178D0000308F0003100A300313B800B8
:1007C0009D2A103084003508B9003408B800EE2A9C
:1007D0002030C10070222030C10070220A30C100D8
:1007E00070220130C2006C20B7080319012C3708B1
:1007F000C10070220830B800FA30C2006C20B80B7B
:06080000FC2BB82B630085
:02400E003A3F37
:00000001FF
;PIC16F877A
;CRC=12E8  CREATED="10-mai-19 18:24"
