:1000000001308A00412900000A108A100A11820773
:1000100028340F3401340634201020102010201012
:1000200020102010201020100000C624CC24D02244
:1000300046264F28000120102010201020102010EC
:10004000200050104910430026308400831300081C
:10005000031937280630F800F701F70B2D28F80BA5
:100060002C287B30F700F70B3328800B2A28080058
:100070002D183C2886113D2886158316861183127B
:10008000AD18442806124528061683160612831258
:100090002D194C2886124D28861683168612831237
:1000A000AD19542806135528061783160613061192
:1000B0008312061583160611831206110800831693
:1000C000061083120610AA08031D68280610692866
:1000D000061483160610A630F700F70B6D280000F3
:1000E0000611831206112B0EAC000F30AC052C0844
:1000F000AD0038202B080F39AC00AD0038200800C7
:100100008316861183128611831606128312061235
:100110008316861283128612831606138312061321
:100120008316061083120610831606118312061119
:100130000F30A60024200130A1002108033C031C3D
:10014000A9280330AD0038200530A6002420A10ADC
:100150009D280230AD003820A1012108033C031C7A
:10016000BA2821080420A200AA012208AB005F20BF
:10017000A10AAD288A110A124E29270BC028C328CC
:100180004030A800C428A80101302602A80728088A
:100190008038A900AA012908AB005F2008002508C3
:1001A0000C3A0319DD28063A0319E528073A031922
:1001B000E528053A0319EB28F028AA010130AB0025
:1001C0005F200230A6002420F5280130A60002306E
:1001D000A700BD20F528AA011030AB005F20F5284C
:1001E0000130AA002508AB005F2008000B08A10021
:1001F0008B13831603178C170C1400000000831256
:100200000C087F3903193D290313A20003170D08B9
:100210000313A30003170F080313A4002208A5006B
:10022000CF20230803178D000313240803178F0022
:1002300083168C170C140000000083120C0D0E0D99
:100240007F3903193D290313A20003170D08031377
:10025000A30003170F080313A4002208A500CF2052
:10026000230803178D000313240803178F008D0A3A
:1002700003198F0A0313F92803170313A11B8B1704
:10028000080003081F39830083161F149F141F15CD
:100290009F1107309C008313831280280230A60030
:1002A0000630A700BD200C3003178D0000308F00F2
:1002B0000313F6200230A100FA30A6002420A10B7F
:1002C0005C290130A6000430A700BD2015300317BB
:1002D0008D0000308F000313F6200830A100FA30A3
:1002E000A6002420A10B6F290130A6000430A7002E
:1002F000BD201B3003178D0000308F000313F62044
:100300000230A100FA30A6002420A10B822902307D
:10031000A6000630A700BD20213003178D00003055
:100320008F000313F6200830A100FA30A600242025
:08033000A10B95294E29630081
:02400E00323F3F
:00000001FF
;PIC16F877A
;CRC=077C  CREATED="10-mai-19 14:32"
