:1000000001308A00DB290000FF00030E8301A100FC
:100010000A08A0008A010408A2007708A300780853
:10002000A4007908A5007A08A600831383128B1E0A
:100030001B280B192C28220884002308F700240809
:10004000F8002508F9002608FA0020088A00210E89
:100050008300FF0E7F0E09008A110A1237280A104A
:100060008A100A11820728340C34013406340B112B
:100070008A110A121B288C266F3A6F39A0183A1081
:10008000200500002E308400831300080319552832
:100090000630F800F701F70B4B28F80B4A287B30A5
:1000A000F700F70B5128800B4828080035185A280C
:1000B00008125B280816831608128312B5186228E6
:1000C00088126328881683168812831235196A28C5
:1000D00008136B280817831608138312B5197228A2
:1000E00088137328881783168813000083128815D5
:1000F000831688110230F700F70B7C287F28000058
:10010000831288118316881183120800B6018316A2
:10011000081600308312081A0130B60483168816B8
:1001200000308312881A0130F7000310F70D7708AA
:10013000B6048316081700308312081B0130F7003D
:10014000F70DF70DFC30F7057708B604831688170E
:1001500000308312881B0130F700F70DF70DF70D03
:10016000F830F7057708B6043608F800080083165B
:1001700088118810081183128810831688100816B9
:1001800088160817881783120815831608110000AF
:100190008312881583168811000083128620780840
:1001A000B500881183168811000083128815831604
:1001B0008811DA28DB280000831286207808B40032
:1001C0008811831688110812881208138813831265
:1001D000350EF700F030F70577083404F80078089A
:1001E000B400B41FF5288316BF28B208031DFA28EF
:1001F0008810FB28881483168810000083120811C9
:100200008316081100008312881183168811831247
:10021000330EB4000F30B4053408B500562033084F
:100220000F39B400B5005620080083160812881252
:1002300008138813881188100811831288108316F8
:1002400088108312081183160811831288118316EF
:1002500088110F308312AE0042200130A900290816
:10026000033C031C3B290330B50056200530AE008B
:100270004220A90A2F290230B50056200530AE00D1
:100280004220A9012908033C031C4F2929082F20DB
:10029000AA00B2012A08B300B720A90A422908001F
:1002A0002F0B532956294030B0005729B001013097
:1002B0002E02B00730088038B100B2013108B30017
:1002C000B72008002D08073A031970290B3A0319C3
:1002D0007529063A03197D29023A031983298829C9
:1002E0000130AE00AF0050218D29B2010130B300C2
:1002F000B7200230AE0042208D290130AE0002301E
:10030000AF0050218D29B2011030B300B7208D29E4
:100310000130B2002D08B300B72008000B08A90077
:100320008B13831603178C170C1400000000831224
:100330000C087F390319D5290313AA0003170D08E8
:100340000313AB0003170F080313AC002A08AD001A
:1003500062212B0803178D0003132C0803178F004D
:1003600083168C170C140000000083120C0D0E0D68
:100370007F390319D5290313AA0003170D080313A6
:10038000AB0003170F080313AC002A08AD0062216D
:100390002B0803178D0003132C0803178F008D0AF9
:1003A00003198F0A0313912903170313A91B8B1732
:1003B0008A110A120F2A03081F398300FF30A70091
:1003C00083161F149F141F159F1107309C00831361
:1003D0001F109F141F159F150030F8000638831258
:1003E0009200FF308316920083122711270883168C
:1003F0008700831207110C3097007F309500170893
:10040000CF392038970015218B16C0308B04152169
:100410003B3003178D0000308F0003138E293130DD
:10042000A800A80803191F2A28082A3C031D1C2A13
:100430000C30AD0062211F2A2808AD0062210F2A6E
:02044000630057
:02400E00323F3F
:00000001FF
;PIC16F877A
;CRC=5C88  CREATED="11-mai-19 15:04"
