:1000000001308A00B12900000A108A100A11820703
:1000100028340C34013406348C16AD16AD16C424C5
:10002000C724D422AD16AD162D050000263084005D
:1000300083130008031929280630F800F701F70B8D
:100040001F28F80B1E287B30F700F70B2528800BA4
:100050001C2808002D182E2886112F288615831697
:1000600086118312AD183628061237280616831615
:10007000061283122D193E2886123F2886168316F3
:1000800086128312AD1946280613472806178316D1
:100090000613000083120615831606110230F700BE
:1000A000F70B5028532800008312061183160611FF
:1000B00083120800AE01831686150030831286195C
:1000C0000130AE048316061600308312061A013082
:1000D000F7000310F70D7708AE048316861600307C
:1000E0008312861A0130F700F70DF70DFC30F70583
:1000F0007708AE048316061700308312061B013002
:10010000F700F70DF70DF70DF830F7057708AE0497
:100110002E08F800080083160611061086108312B8
:100120000610831606108615061686160617831205
:100130008614831686100000831206158316061196
:10014000000083125A207808AD00061183160611AC
:1001500000008312061583160611AE28AF28000092
:1001600083125A207808AC000611831606118611F6
:1001700006128612061383122D0EF700F030F705D3
:1001800077082C04F8007808AC00AC1FC928831647
:100190009328AA08031DCE280610CF28061483161C
:1001A000061000008312861083168610000083124A
:1001B00006118316061183122B0EAC000F30AC050E
:1001C0002C08AD002A202B080F39AC00AD002A20E6
:1001D00008008316861106128612061306110610F1
:1001E000861083120610831606108312861083165B
:1001F000861083120611831606110F308312A60093
:1002000016200130A1002108033C031C0F290330F4
:10021000AD002A200530A6001620A10A03290230CD
:10022000AD002A200530A6001620A1012108033CBC
:10023000031C232921080420A200AA012208AB00E4
:100240008B20A10A16298A110A12BE29270B2929F7
:100250002C294030A8002D29A80101302602A8072A
:1002600028088038A900AA012908AB008B200800C3
:100270002508073A031946290B3A03194B29063A70
:1002800003195329023A031959295E290130A6009E
:10029000A70026216329AA010130AB008B20023080
:1002A000A600162063290130A6000230A7002621EF
:1002B0006329AA011030AB008B2063290130AA000A
:1002C0002508AB008B2008000B08A1008B138316B8
:1002D00003178C170C140000000083120C087F39E0
:1002E0000319AB290313A20003170D080313A3007E
:1002F00003170F080313A4002208A50038212308C0
:1003000003178D000313240803178F0083168C171F
:100310000C140000000083120C0D0E0D7F39031920
:10032000AB290313A20003170D080313A30003173F
:100330000F080313A4002208A5003821230803177F
:100340008D000313240803178F008D0A03198F0AE9
:100350000313672903170313A11B8B178A110A12B2
:10036000CC2903081F39830083161F149F141F15FF
:100370009F1107309C0083138312E9280430A100E9
:10038000FA30A6001620A10BC0290C3003178D00EF
:1003900000308F00031364293230A6001620CF29C5
:0203A0006300F8
:02400E00323F3F
:00000001FF
;PIC16F877A
;CRC=1FDA  CREATED="10-mai-19 21:54"
